:020000040800F2
:1000000000000220550800084507000847070008BF
:10001000490700084B0700084D07000800000000D2
:100020000000000000000000000000004F07000872
:10003000510700080000000053070008550700089A
:10004000A5080008A5080008A5080008A5080008DC
:10005000A5080008A5080008A5080008A5080008CC
:10006000A5080008A5080008A5080008A5080008BC
:10007000A5080008A5080008A5080008A5080008AC
:10008000A5080008A5080008A5080008A50800089C
:10009000A5080008A5080008A5080008A50800088C
:1000A000A5080008A5080008A5080008A50800087C
:1000B000A5080008A5080008A5080008A50800086C
:1000C000A5080008A5080008A5080008A50800085C
:1000D000A5080008A5080008A5080008A50800084C
:1000E000A5080008A5080008A5080008A50800083C
:1000F000A5080008A5080008A5080008A50800082C
:10010000A5080008A5080008A5080008A50800081B
:10011000A5080008A5080008A5080008A50800080B
:10012000A5080008A5080008A5080008A5080008FB
:10013000A5080008A5080008A5080008A5080008EB
:10014000A5080008A5080008A5080008A5080008DB
:10015000A5080008A5080008A5080008A5080008CB
:10016000A5080008A5080008A5080008A5080008BB
:10017000A5080008A5080008A5080008A5080008AB
:10018000A5080008A5080008A5080008A50800089B
:10019000A508000800000000A5080008A508000840
:1001A000A5080008A5080008A5080008A50800087B
:1001B000A5080008A5080008A5080008A50800086B
:1001C000A5080008A5080008A5080008A50800085B
:0801D000A5080008A5080008BD
:1001D80010B5054C237833B9044B13B10448AFF379
:1001E80000800123237010BD0C00002000000000D7
:1001F800301D000808B5034B1BB103490348AFF392
:10020800008008BD0000000010000020301D00081C
:1002180053B94AB9002908BF00281CBF4FF0FF3165
:100228004FF0FF3000F070B9ADF1080C6DE904CE65
:1002380000F006F8DDF804E0DDE9022304B07047B9
:100248002DE9F047089E0D4604460F46002B4AD17B
:100258008A42944665D9B2FA82F343B102FA03FCA2
:10026800C3F120029F4020FA02F217439C404FEA54
:100278001C4E1FFA8CF5B7FBFEF1220C0EFB117712
:1002880042EA074201FB05F090420AD91CEB020240
:1002980001F1FF3780F01C81904240F21981023948
:1002A8006244121AA4B2B2FBFEF00EFB102244EA1A
:1002B800024400FB05F5A5420AD91CEB040400F131
:1002C800FF3280F00781A54240F20481644402387D
:1002D80040EA0140641B00211EB1DC400023C6E94E
:1002E8000043BDE8F0878B4208D9002E00F0ED806E
:1002F8000021C6E900050846BDE8F087B3FA83F196
:10030800002949D1AB4202D3824200F2F880841A14
:1003180065EB030201201746002EE2D0C6E900472C
:10032800DFE702B9FFDEB2FA82F3002B40F09080DB
:100338008A1A4FEA1C471FFA8CFE0121B2FBF7F517
:1003480007FB1520220C42EA00420EFB05F0904202
:1003580008D91CEB020205F1FF3802D2904200F2E4
:10036800CB804546121AA4B2B2FBF7F007FB102265
:1003780044EA02440EFB00FEA64508D91CEB04041F
:1003880000F1FF3202D2A64500F2BB801046A4EB72
:100398000E0440EA05409FE7C1F120078B4022FA8E
:1003A80007FC4CEA030C05FA01F420FA07F3FD40B8
:1003B8004FEA1C492343B5FBF9F81FFA8CFE09FBE9
:1003C80018551C0C44EA054408FB0EF5A54202FA30
:1003D80001F200FA01F00BD91CEB040408F1FF3A12
:1003E80080F08880A54240F28580A8F10208644424
:1003F800641B9DB2B4FBF9F309FB134445EA0444BA
:1004080003FB0EFEA64508D91CEB040403F1FF35D7
:100418006CD2A6456AD9023B644443EA0843A3FB6D
:100428000295A4EB0E04AC42C846AE4656D353D050
:1004380056B1B0EB080264EB0E0404FA07F7CA40A1
:10044800CC401743C6E9007418460021BDE8F08780
:10045800C3F1200102FA03FC20FA01F225FA01F1A6
:100468009D402A434FEA1C471FFA8CFEB1FBF7F068
:1004780007FB1015110C41EA054100FB0EF58D42F2
:1004880004FA03F408D91CEB010100F1FF382FD25C
:100498008D422DD902386144491B92B2B1FBF7F560
:1004A80007FB151142EA014205FB0EF1914208D9FA
:1004B8001CEB020205F1FF3816D2914214D9023D15
:1004C8006244521A45EA004138E73146304608E7A7
:1004D8003946E6E61046FBE64845A9D2B9EB0208DC
:1004E80065EB0C0E013BA3E74546EAE72B4694E78C
:1004F8004046D1E7D0467BE7023D624432E70846F2
:100508000AE76444023842E7704700BF00B5142286
:100518008BB00DEB0200002101F0DAFB1F4B2048E5
:10052800DA6C42F00402DA64DA6C02F00402009237
:10053800009ADA6C42F02002DA64DA6C02F02002E7
:100548000192019ADA6C42F00102DA64DA6C02F084
:1005580001020292029ADA6C42F00802DA64DA6C5A
:1005680002F008020392039ADA6C42F00202DA649B
:10057800DB6C03F00203049300220121049B00F0CA
:10058800B3FA0123CDE905330548002305A9CDE9D0
:10059800073300F0DDF90BB05DF804FB00100240F2
:1005A800000C004810B594B03822002106A801F0CC
:1005B8008FFB1422002101A801F08AFB002000F023
:1005C80099FA40224FF480710223CDE909120424DC
:1005D800552206A8CDE90D33CDE90F42CDE91133F7
:1005E8000693139300F060FC08B172B6FEE7CDE9FC
:1005F80003000F2203230590214601A8CDE901231A
:1006080000F098FE08B172B6FEE714B010BD08B548
:1006180001F03CFBFFF7C6FFFFF778FF00F006F894
:1006280000F0A0F8FEE772B6FEE700001048114A95
:1006380008B54FF48273C0E9002300234FF44072D9
:100648004FF48021C0E902320822C0E906120721CE
:10065800C0E90433C0E90833C0E90B13836242637D
:1006680000F080FF18B1BDE80840FFF7DCBF08BD07
:1006780028000020003C004030B5044689B0142210
:10068800002103A801F024FB22681D4B9A4234D1B3
:1006980003F5EA3302259A6D42F400429A659A6D91
:1006A80002F400420092009ADA6C42F00102DA6425
:1006B800DA6C02F001020192019ADA6C42F004024B
:1006C800DA64DB6C03F004030293029B06244FF404
:1006D800004303A94FF09040CDE90335079400F09B
:1006E80037F94FF4E053CDE9033506480794002362
:1006F80003A9CDE9053300F02BF909B030BD00BFDF
:10070800003C0040000800480B4B1A6E42F0010202
:100718001A661A6E82B002F001020092009A9A6D6F
:1007280042F080529A659B6D03F080530193019BC0
:1007380002B000F039BA00BF00100240FEE7FEE741
:10074800FEE7FEE7FEE770477047704701F0AEBA74
:10075800034AD2F8883043F47003C2F888307047EF
:1007680000ED00E01648174A08B54FF4E133C0E938
:10077800002300230C22C0E90233C0E90523C0E9A5
:100788000733C0E90933036101F029FA08B1FFF71B
:100798004AFF0B48002100F090FF08B1FFF743FF24
:1007A8000748002100F0A9FF08B1FFF73CFF044803
:1007B80000F068FF18B1BDE80840FFF734BF08BD76
:1007C8008C0000200038014010B59CB0044614226B
:1007D800002102A801F07CFA5422002107A801F0A8
:1007E80077FA2268164B9A4227D1012307A8079364
:1007F80000F0E2F908B1FFF716FF124B12481A6E23
:1008080042F480421A661A6E02F480420092009AFC
:10081800DA6C42F00402DA64DB6C03F0040301933F
:10082800019B30220223CDE902230023CDE90433C2
:1008380002A90723069300F08BF81CB010BD00BF77
:100848000038014000100240000800480D48854665
:100858000D480E490E4A002302E0D458C450043310
:10086800C4188C42F9D30B4A0B4C002301E01360E7
:100878000432A242FBD3FFF76BFF01F031FAFFF716
:10088800C6FEFEE700000220000000200C00002049
:10089800A81D00080C00002020010020FEE7000031
:1008A8000749CA6822F4E0620302120403F4E06311
:1008B800120C134343F0BF6343F40033CB6070471B
:1008C80000ED00E0164B30B5DC68C4F30224C4F137
:1008D8000703251D042B28BF0423062D4FF0FF35E1
:1008E8008CBF033C002405FA03F321EA0303A54067
:1008F80022EA0502A340002843EA0203ACBF00F144
:100908006040084A4FEA0313B8BF00F00F00DBB29B
:10091800AABF00F56140135480F8003330BD00BF12
:1009280000ED00E014ED00E00138B0F1807F0BD25B
:100938004FF0E023054A5861F02182F82310002087
:10094800072298611A6170470120704700ED00E0A6
:100958002DE9F74FDFF88C91604C00230A6832FAD2
:1009680003F502D103B0BDE8F08F012505FA03FEB7
:100978001EEA020200F0A5804E6806F003054FEA61
:1009880043084FF0030C6F1E0CFA08FC012F6FEAA6
:100998000C0C34D8876807EA0C0ACF6807FA08F7FE
:1009A80047EA0A078760476827EA0E0EC6F300176A
:1009B8009F4047EA0E074760C76807EA0C0E8F6832
:1009C80007FA08F747EA0E07022DC76019D14FEA60
:1009D800D30A00EB8A0A03F0070BDAF820704FEA13
:1009E8008B0B4FF00F0E0EFA0BFE27EA0E0E0F6957
:1009F80007FA0BF747EA0E07CAF8207001E0032D43
:100A0800DAD1076805FA08F507EA0C073D4316F43A
:100A1800403F056055D0D9F8605045F00105C9F848
:100A28006050D9F8605023F0030707F1804705F0BC
:100A3800010507F58037019503F0030E019DBD6898
:100A48004FEA8E0E4FF00F0C0CFA0EFCB0F1904FDF
:100A580025EA0C0C37D0224DA84236D005F5806522
:100A6800A84234D005F58065A84232D005F58065E6
:100A7800A84230D005F58065A8420CBF052506259B
:100A880005FA0EF545EA0C05BD60A568D74316F4CE
:100A9800801F0CBF3D401543A560E56816F4001F94
:100AA8000CBF3D401543E560656816F4003F0CBF78
:100AB8003D40154365602568F60354BF3D40154326
:100AC800256001334AE70025DAE70125D8E7022542
:100AD800D6E70325D4E70425D2E700BF0004014088
:100AE80000040048001002400AB181617047816229
:100AF80070470000294B1A6830BB02F4C062B2F597
:100B0800806FD3F8802022F48072C3F880201AD135
:100B18001A6822F4C06242F400721A60204A12680D
:100B280032214A431F49B2FBF1F2013259694905A2
:100B380000D522B95B69580503D400207047013AF3
:100B4800F4E7032070477047B0F5007F1FD102F427
:100B5800C062B2F5806FD3F8802042F48072C3F887
:100B68008020EAD11A6822F4C06242F400721A6046
:100B78000B4A126832214A430A49B2FBF1F20132A8
:100B880059694905D6D5002AD4D0013AF8E722F4A4
:100B9800C06242F480621A60CFE700BF0070004074
:100BA8000000002040420F00024A936843F480434B
:100BB80093607047007000402DE9F34104460068D7
:100BC80010F4002039D0A34DAB6DD80027D4AB6DFD
:100BD80043F08053AB65AB6D03F080530193019BE9
:100BE80001269D4F3B6843F480733B6001F06AF82F
:100BF80080463B68D90514D5D5F89030226D13F49A
:100C0800407302D0934240F02981D5F89030226D8C
:100C180023F440731343C5F89030002008E0002601
:100C2800DFE701F04FF8A0EB08000228E1D9032024
:100C38001EB1AB6D23F08053AB652368DD0708D583
:100C480084496568D1F8882022F003022A43C1F854
:100C58008820990708D57F49A568D1F8882022F00F
:100C68000C022A43C1F888205A0708D57949E56853
:100C7800D1F8882022F030022A43C1F888201F07C3
:100C880008D574492569D1F8882022F0C0022A4382
:100C9800C1F88820DE0608D56E496569D1F8882034
:100CA80022F440722A43C1F888209D0608D5694974
:100CB800A569D1F8882022F440622A43C1F8882027
:100CC800590608D56349E569D1F8882022F44052CD
:100CD8002A43C1F888201A0608D55E49256AD1F842
:100CE800882022F440422A43C1F88820DF0508D52D
:100CF8005849656AD1F8882022F440322A43C1F85D
:100D080088209E0308D55349A56AD1F89C2022F073
:100D180003022A43C1F89C209D0508D54D49E56A80
:100D2800D1F8882022F440222A43C1F888205905A6
:100D38000FD54849256BD1F8882022F440122A4360
:100D4800C1F88820B5F5801F02BFCA6842F4801236
:100D5800CA601A050FD53F49656BD1F8882022F47F
:100D680040022A43C1F88820B5F5800F02BFCA683F
:100D780042F48012CA60DF040FD53649A56BD1F85A
:100D8800882022F040722A43C1F88820B5F1807F7C
:100D980002BFCA6842F48012CA609E040FD52D496A
:100DA800E56BD1F8882022F040622A43C1F88820F8
:100DB800B5F1006F02BFCA6842F48012CA605D04D0
:100DC8000FD52449256CD1F8882022F040622A43A7
:100DD800C1F88820B5F1006F02BFCA6842F48012DA
:100DE800CA6019040FD51B49656CD1F8882022F018
:100DF80040522A43C1F88820B5F1805F02BFCA6813
:100E080042F48032CA60DA030FD51249A56CD1F8D2
:100E1800882022F040422A43C1F88820B5F1804F4B
:100E280002BFCA6842F48032CA605B030FD5094A20
:100E3800E16CD2F89C3023F440130B43B1F5001F4A
:100E4800C2F89C3003D1D36843F48013D36002B056
:100E5800BDE8F0810010024000700040D5F89020F5
:100E6800D5F8903043F48033C5F89030D5F89030F9
:100E780022F4407123F48033D207C5F89030C5F8C6
:100E880090107FF5C2AE00F01DFF41F2883807468A
:100E9800D5F890309B073FF5B8AE00F013FFC01BA4
:100EA8004045F5D9C3E600BF2DE9F341044640B3F8
:100EB8000368DF0714D423689E075BD423681E07E2
:100EC80000F1A48023685D0700F1CB8023689B06AE
:100ED80000F13281E069002840F06081002028E0BC
:100EE800A14DAB68EA6803F00C030C2B0BD102F0A0
:100EF8000303032B09D12B689D03DCD56368002B02
:100F0800D9D1012015E0082BF4E76368B3F5803FD9
:100F180012D12B6843F480332B6000F0D3FE0646D1
:100F28002B689803C7D400F0CDFE801B6428F7D93E
:100F3800032002B0BDE8F081B3F5A02F04D12B68DF
:100F480043F480232B60E4E72A6822F480322A6085
:100F58002A6822F480222A60002BDED100F0B2FE3B
:100F680006462B689903A6D500F0ACFE801B6428C2
:100F7800F7D9DDE77C4DAB68EA6803F00C030C2B6E
:100F880017D102F00303022B15D12B685A0502D59D
:100F9800E368002BB5D06B68226923F0FE4343EA6F
:100FA80002636B60714B186800F04AFE002885D018
:100FB800A7E7042BE8E7E368BBB12B6843F4807329
:100FC8002B6000F07FFE06462B685B0507D56B6833
:100FD800226923F0FE4343EA02636B606EE700F088
:100FE80071FE801B0228EFD9A2E72B6823F48073D7
:100FF8002B6000F067FE06462B685F057FF55EAF45
:1010080000F060FE801B0228F6D991E76369564D0F
:101018009BB1D5F8943043F00103C5F8943000F043
:1010280051FE0646D5F8943098073FF54BAF00F0CF
:1010380049FE801B0228F5D97AE7D5F8943023F0C9
:101048000103C5F8943000F03DFE0646D5F894300B
:1010580099077FF537AF00F035FE801B0228F5D9D8
:1010680066E7414DAB6DDA0027D4AB6D43F0805392
:10107800AB65AB6D03F080530193019B01273C4E98
:101088003368DB051BD5A368012B29D1D5F890302F
:1010980043F00103C5F8903000F014FE41F288389F
:1010A8000646D5F89030990740D5002F3FF40EAF8B
:1010B800AB6D23F08053AB6508E70027DFE73368A3
:1010C80043F48073336000F0FDFD80463368D80533
:1010D800D9D400F0F7FDA0EB08000228F6D927E7DD
:1010E800052B06D1D5F8903043F00403C5F89030AD
:1010F800CCE7D5F8902022F00102C5F89020D5F869
:10110800902022F00402C5F89020002BC4D100F0F2
:10111800D9FD41F288380646D5F890309A07C4D5EB
:1011280000F0D0FD801B4045F6D901E700F0CAFD6C
:10113800801B4045B5D9FBE6A3690B4DD3B1D5F863
:10114800983043F00103C5F8983000F0BBFD06461F
:10115800D5F898309F073FF5BDAE00F0B3FD801B72
:101168000228F5D9E4E600BF00100240080000207C
:1011780000700040D5F8983023F00103C5F8983086
:1011880000F0A0FD0646D5F8983098077FF5A2AE86
:1011980000F098FD801B0228F5D9C9E6484DAB68D8
:1011A80003F00C030C2B57D02B68022823F0807314
:1011B8002B603AD100F086FD06462B6899012ED4A3
:1011C800EA68404B1340226A1343A26A43EA0223A7
:1011D800E26A43EAC263626A013A43EA0213226B93
:1011E8005208013A43EA4253626B5208013A43EA11
:1011F8004263EB602B6843F080732B60EB6843F02D
:101208008073EB6000F05EFD04462B689A013FF5A1
:1012180065AE00F057FD001B0228F6D988E600F0FD
:1012280051FD801B0228C8D982E6EB6823F003032E
:10123800EB60EB6823F0887323F48033EB6000F0F5
:1012480041FD04462B689B017FF548AE00F03AFD4E
:10125800001B0228F6D96BE601283FF46AAEEB685A
:10126800226A03F0030191427FF44BAE616A03F0F6
:10127800F0020139B2EB011F7FF443AEA16A03F417
:10128800FE42B2EB012F7FF43CAEE16A03F07842F4
:10129800B2EBC16F7FF435AE226B520803F4C00184
:1012A800013AB1EB425F7FF42CAE626B520803F057
:1012B800C063013AB3EB426F3FF410AE21E600BFC2
:1012C800001002400C809F01174B9A6802F00C0234
:1012D800042A23D09A6802F00C02082A20D09A68BF
:1012E80002F00C020C2A1DD1D968DA68D868DB68CC
:1012F80001F00301C3F341630329C2F30312C0F3EE
:10130800062003F101030CBF084909495B000132BB
:10131800B1FBF2F25043B0FBF3F07047044870475A
:10132800024870470020704700100240002D31012C
:101338000024F4002DE9F8430E46054610B90120B3
:10134800BDE8F8836D4A136803F00F038B4245D359
:10135800296811F001084CD12A68910740F1A7804B
:10136800674B12F0040F1EBF996841F4E061996061
:10137800120741BF9A6822F47C5242F4E0629A60F4
:101388009A68A96822F0F0020A439A605B4C2368C5
:1013980003F00F03B34200F293802A68584C12F00E
:1013A800040F40F0A380130706D5A3682A6923F425
:1013B800605343EAC203A360FFF786FFA368514A5C
:1013C800C3F30313D35C03F01F03D8404E4B1860DC
:1013D8004E4B1868BDE8F84300F032BC136823F0A0
:1013E8000F030B431360136803F00F038B42A6D15E
:1013F800AEE76F68424C032F236849D19B019ED505
:10140800E368E26803F00303032BE3680CBF40487A
:101418004048C2F30312C3F306230132B0FBF2F2D1
:101428005343E268C2F3416201325200B3FBF2F364
:10143800394A93421AD84FF00008A36823F00303EF
:101448003B43A36000F03EFC41F288390746A3689D
:101458006A6803F00C03B3EB820F3FF47DAF00F032
:1014680031FCC01B4845F2D9032069E7A36813F093
:10147800F00F04D08807DED5AB68002BDBD1A3685A
:1014880023F0F00343F08003A3604FF08008D4E713
:10149800022F09D113F4003F3FF451AFFFF714FFB7
:1014A8001D4B9842C7D9EAE713F4806FF4E7B8F107
:1014B800800F01BF124A936823F0F003936065E739
:1014C800236823F00F033343236000F0FBFB41F252
:1014D80088380746236803F00F03B3423FF45DAF33
:1014E80000F0F0FBC01B4045F4D9BDE7A368E968EC
:1014F80023F4E0630B43A36055E700BF00200240DC
:1015080000100240481D00080000002008000020CC
:10151800002D31010024F40000B4C404054B064A30
:101528009B68C3F30223D35C044A106803F01F03CB
:10153800D840704700100240581D000800000020E5
:10154800054B064A9B68C3F3C223D35C044A106860
:1015580003F01F03D840704700100240581D0008D0
:101568000000002070B50446002863D0436A002BB1
:101578005CD14268B2F5827F00D0C3610023A362C8
:1015880094F85D3003F0FF0223B984F85C2020460C
:10159800FFF772F82268E068022384F85D30136868
:1015A800B0F5E06F23F0400313604FF0000343D819
:1015B8004FF4805500D0A3626368A668A16906F459
:1015C800044603F482733343266906F00206334364
:1015D800666906F00106334301F400763343E66991
:1015E80006F038063343266A06F080063343A66AB7
:1015F80006F4005633431360666B636A06F0080608
:1016080003F0100300F470603343090C034301F046
:1016180004010B432B435360D36923F40063D36164
:1016280000200123206684F85D3070BD0023C0E9E6
:101638000433A3E70120F8E71D46B0F5706FB9E75A
:10164800436E30B52BB90123A0F86A30A0F8683092
:1016580030BD0368094D9A689968094C490FC2F36F
:1016680042626B5C615CDB00B3FBF1F3A0F86A30AB
:10167800AB5CA25CDB00B3FBF2F3E7E7681D000894
:10168800601D000890F88030012B14D002682423D4
:10169800C0F884301168136823F00103136021F047
:1016A80000510023436611602022C0F8842080F88E
:1016B8008030184670470220704770B590F8803027
:1016C800012B044617D005682423C0F884302E68FF
:1016D8002B6823F001032B60AB6823F060431943A8
:1016E800A960FFF7ADFF20232E60C0F884300020EA
:1016F80084F8800070BD0220FCE770B590F8803057
:10170800012B044617D005682423C0F884302E68BE
:101718002B6823F001032B60AB6823F06063194347
:10172800A960FFF78DFF20232E60C0F884300020C9
:1017380084F8800070BD0220FCE7000038B504463C
:1017480003682169A2681D68C0690A4361690A4380
:10175800A049024329400A431A605A68E16822F402
:1017680040520A435A609C4AA16993421CBF226AAC
:1017780011439A6822F06E4222F430620A439A605A
:10178800DA6A616A22F00F020A43DA62934A9342E4
:101798001BD1934BD3F8883003F00303013B022B92
:1017A80000F2E4808F4AD35CB0F5004F40F0AB8084
:1017B800082B26D8DFE813F0EE00DD00A500250091
:1017C800E300250025002500F200874A934206D150
:1017D800834B864AD3F8883003F00C03E3E7844A46
:1017E800934219D17E4BD3F8883003F03003202B75
:1017F80000F0C88007D8002B00F0C980102B00F03B
:10180800BB8001204EE0302BFBD1B0F5004F00F03B
:10181800C5804FF4004093E0764A93420FD1704B55
:10182800D3F8883003F0C003802B00F0AB8004D8D5
:10183800002B00F0AC80402BE1E7C02BE4E76E4AB8
:10184800934212D1664BD3F8883003F44073B3F552
:10185800007F00F0978005D8002B00F09880B3F542
:10186800807FCCE7B3F5407FCEE75B4A9342C8D18F
:101878005B4BD3F8883003F44063B3F5006F18D09E
:1018880006D85BB1B3F5806FBBD1FFF71DFD07E04C
:10189800B3F5406FB5D14FF400400BE0FFF73EFEC3
:1018A80040B900204FF00113A3660023C4E91C339C
:1018B80038BD52486568524B626A05EB450133F8FA
:1018C8001220B0FBF2F399429BD8B3EB053F98D8AE
:1018D80000231946FEF79CFC090241EA10616B08D7
:1018E8000002C0182A464FF0000341F10001FEF73C
:1018F8008FFC444BA0F540729A4282D82368D86086
:10190800CFE73E484AE0082B3FF67BAF01A252F8EA
:1019180023F000BF4119000869190008931900084D
:101928000B1800086F1900080B1800080B1800089E
:101938000B1800081B180008FFF7F0FD0028B0D0AE
:101948006368616A2E4A32F81120B0FBF2F000EBAE
:101958005300B0FBF3F04FF6EF73A0F11002CBE7A2
:10196800FFF7EEFDEAE7FFF7AFFCE7E7B0F5004F5A
:10197800F6D1FFF7E5FD0FE0B0F5004FF3D1FFF723
:10198800A3FC09E0B0F5004FBBD01C48D8E7B0F580
:10199800004FD1D1FFF7C2FD002882D06168184BF3
:1019A800626A33F81220B0FBF2F24B0803EB4203F1
:1019B8004FF6EF72B3FBF1F3A3F1100191423FF63A
:1019C80020AF23F00F02216892B2C3F342031343FE
:1019D800CB6066E7F369FFCF008000400038014024
:1019E80000100240701D000800440040731D0008EC
:1019F80000480040004C0040005000400024F40023
:101A0800801D0008FFFC0F00836ADA0710B506D5B1
:101A18000168C46A4A6822F4003222434A609C077B
:101A280006D50168046B4A6822F4803222434A6072
:101A3800590706D50168446B4A6822F4802222437C
:101A48004A601A0706D50168846B4A6822F4004286
:101A580022434A60DC0606D50168C46B8A6822F412
:101A6800805222438A60990606D50168046C8A6808
:101A780022F4005222438A605A060FD50168446C4A
:101A88004A6822F480122243B4F5801F4A6005D1C7
:101A98004A68846C22F4C00222434A601B0606D5B9
:101AA8000268C16C536823F400230B43536010BDD4
:101AB8002DE9F041DDF8188004460E4615461F460C
:101AC8002268D36936EA03030CBF01230023AB4223
:101AD80001D0002027E0B8F1FF3FF2D000F0F2F883
:101AE800C01B4045206802D8B8F1000F1DD150E84E
:101AF800003F23F4D07340E80032002AF7D100F108
:101B0800080353E8003F23F0010300F1080141E80E
:101B18000032002AF3D12023C4F88430C4F8883076
:101B280084F880200320BDE8F08103685A07C7D5F0
:101B3800C3691B05C4D54FF40063036250E8003F36
:101B480023F4D07340E80032002AF7D100F10803EB
:101B580053E8003F23F0010300F1080141E8003297
:101B6800002AF3D12023C4F88430C4F88830C4F89C
:101B78008C30D5E730B50446002585B0C0F88C50C8
:101B880000F0A0F8226812681107034617D42268EB
:101B98001268520709D56FF07E4200924FF4800117
:101BA80000222046FFF784FFB0B920230020C4F8A4
:101BB800843084F88000C4F88830E0660DE06FF067
:101BC8007E42009203902A464FF400112046FFF708
:101BD8006FFF039B0028DAD0032005B030BD10B595
:101BE800044650B3D0F884301BB980F88030FEF733
:101BF800EBFD22682423C4F88430136823F0010322
:101C080013602046FFF79AFD012816D0A36A13B186
:101C18002046FFF7F9FE23685A6822F490425A607A
:101C28009A6822F02A029A601A6842F00102204655
:101C38001A60BDE81040FFF79DBF012010BD0000ED
:101C480038B50F4B1A6805460AB9012038BD4FF45C
:101C58007A73B3FBF2F30B4A1068B0FBF3F0FEF7AC
:101C680063FE04460028F0D10F2DEED8024629461F
:101C78004FF0FF30FEF726FE034B20461D60E5E7D8
:101C880004000020000000200800002010B50320F8
:101C9800FEF706FE0F20FFF7D3FF044618B9FEF73C
:101CA80033FD204610BD0124FBE70000034A044928
:101CB800136809680B441360704700BF1C010020BB
:101CC80004000020014B1868704700BF1C01002069
:101CD80002440346934200D1704703F8011BF9E719
:101CE80070B50D4D0D4C641BA4100026A64209D1F9
:101CF8000B4D0C4C00F018F8641BA4100026A642EB
:101D080005D170BD55F8043B98470136EEE755F804
:101D1800043B98470136F2E7A01D0008A01D000803
:101D2800A01D0008A41D0008F8B500BFF8BC08BC39
:101D38009E467047F8B500BFF8BC08BC9E46704781
:101D48000000000000000000010203040607080963
:101D58000000000001020304080402040801010154
:101D6800010101030701000004020800101010041B
:101D780010101002101010080100020004000600E4
:101D880008000A000C00100020004000800000013C
:081D9800B0E4FF7F0100000030
:041DA000FD01000839
:041DA400D901000859
:0C1DA8000024F400010000001000000006
:040000050800085592
:00000001FF
